{
  "contractName": "SachToken",
  "abi": [
    {
      "constant": true,
      "inputs": [],
      "name": "totalSupply",
      "outputs": [
        {
          "name": "",
          "type": "uint256"
        }
      ],
      "payable": false,
      "stateMutability": "view",
      "type": "function"
    },
    {
      "inputs": [],
      "payable": false,
      "stateMutability": "nonpayable",
      "type": "constructor"
    }
  ],
  "bytecode": "0x608060405234801561001057600080fd5b50620f4240600081905550609e806100296000396000f300608060405260043610603f576000357c0100000000000000000000000000000000000000000000000000000000900463ffffffff16806318160ddd146044575b600080fd5b348015604f57600080fd5b506056606c565b6040518082815260200191505060405180910390f35b600054815600a165627a7a72305820a217dbd3741ae931ae540aa9d42f38ff82f916f5dc22451b914a44def9668d280029",
  "source": "pragma solidity ^0.4.23;\n\ncontract SachToken {\n  //state variable\n  //N.B: solidity gives us a free getter function to retun the total supply.\n  uint256 public totalSupply;\n  //constructor\n  function SachToken() public {\n    totalSupply = 1000000;\n  }\n  //set total number of tokens\n  //read the total number of tokens\n\n}\n",
  "sourcePath": "/home/sach/Desktop/tokensale/contracts/SachToken.sol",
  "compiler": {
    "name": "solc",
    "version": "0.4.24+commit.e67f0147.Emscripten.clang"
  },
  "schemaVersion": "2.0.1",
  "updatedAt": "2018-10-30T13:43:53.582Z"
}