{
  "contractName": "SachTokenSale",
  "abi": [
    {
      "constant": true,
      "inputs": [],
      "name": "tokenContract",
      "outputs": [
        {
          "name": "",
          "type": "address"
        }
      ],
      "payable": false,
      "stateMutability": "view",
      "type": "function"
    },
    {
      "constant": true,
      "inputs": [],
      "name": "tokenPrice",
      "outputs": [
        {
          "name": "",
          "type": "uint256"
        }
      ],
      "payable": false,
      "stateMutability": "view",
      "type": "function"
    },
    {
      "inputs": [
        {
          "name": "_tokenContract",
          "type": "address"
        },
        {
          "name": "_tokenPrice",
          "type": "uint256"
        }
      ],
      "payable": false,
      "stateMutability": "nonpayable",
      "type": "constructor"
    }
  ],
  "bytecode": "0x608060405234801561001057600080fd5b506040516040806101f88339810180604052810190808051906020019092919080519060200190929190505050336000806101000a81548173ffffffffffffffffffffffffffffffffffffffff021916908373ffffffffffffffffffffffffffffffffffffffff16021790555081600160006101000a81548173ffffffffffffffffffffffffffffffffffffffff021916908373ffffffffffffffffffffffffffffffffffffffff160217905550806002819055505050610122806100d66000396000f3006080604052600436106049576000357c0100000000000000000000000000000000000000000000000000000000900463ffffffff16806355a373d614604e5780637ff9b5961460a2575b600080fd5b348015605957600080fd5b50606060ca565b604051808273ffffffffffffffffffffffffffffffffffffffff1673ffffffffffffffffffffffffffffffffffffffff16815260200191505060405180910390f35b34801560ad57600080fd5b5060b460f0565b6040518082815260200191505060405180910390f35b600160009054906101000a900473ffffffffffffffffffffffffffffffffffffffff1681565b600254815600a165627a7a723058205c9a025b9b4552ccd95a3011e2b19817b54f57b1c7b4a1c77ddecadd6c269e720029",
  "source": "pragma solidity ^0.4.2;\nimport \"./SachToken.sol\";\n\ncontract SachTokenSale {\n  //private instance variables\n  address admin; //external account to manage over the contract (not marked as public cause we dont want to expose this!)\n  //public instance variables\n  SachToken public tokenContract; //? - function that will give the address of the SachToken to be set inside the constructor\n  uint256 public tokenPrice;\n\n  constructor(SachToken _tokenContract, uint256 _tokenPrice) public {\n      //assign admin (does things like end sale) to be the person who deployed the contract\n      admin = msg.sender;\n      //token contract\n      tokenContract = _tokenContract;\n      //token price\n      tokenPrice = _tokenPrice;\n\n  }\n}\n",
  "sourcePath": "/home/sach/Desktop/tokensale/contracts/SachTokenSale.sol",
  "compiler": {
    "name": "solc",
    "version": "0.4.24+commit.e67f0147.Emscripten.clang"
  },
  "schemaVersion": "2.0.1",
  "updatedAt": "2018-11-03T08:07:29.791Z"
}