{
  "contractName": "SachToken",
  "abi": [
    {
      "constant": true,
      "inputs": [],
      "name": "name",
      "outputs": [
        {
          "name": "",
          "type": "string"
        }
      ],
      "payable": false,
      "stateMutability": "view",
      "type": "function"
    },
    {
      "constant": true,
      "inputs": [],
      "name": "totalSupply",
      "outputs": [
        {
          "name": "",
          "type": "uint256"
        }
      ],
      "payable": false,
      "stateMutability": "view",
      "type": "function"
    },
    {
      "constant": true,
      "inputs": [
        {
          "name": "",
          "type": "address"
        }
      ],
      "name": "balanceOf",
      "outputs": [
        {
          "name": "",
          "type": "uint256"
        }
      ],
      "payable": false,
      "stateMutability": "view",
      "type": "function"
    },
    {
      "constant": true,
      "inputs": [],
      "name": "symbol",
      "outputs": [
        {
          "name": "",
          "type": "string"
        }
      ],
      "payable": false,
      "stateMutability": "view",
      "type": "function"
    },
    {
      "constant": true,
      "inputs": [
        {
          "name": "",
          "type": "address"
        },
        {
          "name": "",
          "type": "address"
        }
      ],
      "name": "allowance",
      "outputs": [
        {
          "name": "",
          "type": "uint256"
        }
      ],
      "payable": false,
      "stateMutability": "view",
      "type": "function"
    },
    {
      "inputs": [
        {
          "name": "_initialSupply",
          "type": "uint256"
        }
      ],
      "payable": false,
      "stateMutability": "nonpayable",
      "type": "constructor"
    },
    {
      "anonymous": false,
      "inputs": [
        {
          "indexed": true,
          "name": "_from",
          "type": "address"
        },
        {
          "indexed": true,
          "name": "_to",
          "type": "address"
        },
        {
          "indexed": false,
          "name": "_value",
          "type": "uint256"
        }
      ],
      "name": "Transfer",
      "type": "event"
    },
    {
      "anonymous": false,
      "inputs": [
        {
          "indexed": true,
          "name": "_owner",
          "type": "address"
        },
        {
          "indexed": true,
          "name": "_spender",
          "type": "address"
        },
        {
          "indexed": false,
          "name": "_value",
          "type": "uint256"
        }
      ],
      "name": "Approval",
      "type": "event"
    },
    {
      "constant": false,
      "inputs": [
        {
          "name": "_to",
          "type": "address"
        },
        {
          "name": "_value",
          "type": "uint256"
        }
      ],
      "name": "transfer",
      "outputs": [
        {
          "name": "success",
          "type": "bool"
        }
      ],
      "payable": false,
      "stateMutability": "nonpayable",
      "type": "function"
    },
    {
      "constant": false,
      "inputs": [
        {
          "name": "_spender",
          "type": "address"
        },
        {
          "name": "_value",
          "type": "uint256"
        }
      ],
      "name": "approve",
      "outputs": [
        {
          "name": "success",
          "type": "bool"
        }
      ],
      "payable": false,
      "stateMutability": "nonpayable",
      "type": "function"
    },
    {
      "constant": false,
      "inputs": [
        {
          "name": "_from",
          "type": "address"
        },
        {
          "name": "_to",
          "type": "address"
        },
        {
          "name": "_value",
          "type": "uint256"
        }
      ],
      "name": "transferFrom",
      "outputs": [
        {
          "name": "success",
          "type": "bool"
        }
      ],
      "payable": false,
      "stateMutability": "nonpayable",
      "type": "function"
    }
  ],
  "bytecode": "0x60806040526040805190810160405280600981526020017f53616368546f6b656e00000000000000000000000000000000000000000000008152506000908051906020019061004f92919061011c565b506040805190810160405280600381526020017f58434800000000000000000000000000000000000000000000000000000000008152506001908051906020019061009b92919061011c565b503480156100a857600080fd5b50604051602080610c30833981018060405281019080805190602001909291905050508060028190555080600360003373ffffffffffffffffffffffffffffffffffffffff1673ffffffffffffffffffffffffffffffffffffffff16815260200190815260200160002081905550506101c1565b828054600181600116156101000203166002900490600052602060002090601f016020900481019282601f1061015d57805160ff191683800117855561018b565b8280016001018555821561018b579182015b8281111561018a57825182559160200191906001019061016f565b5b509050610198919061019c565b5090565b6101be91905b808211156101ba5760008160009055506001016101a2565b5090565b90565b610a60806101d06000396000f30060806040526004361061008e576000357c0100000000000000000000000000000000000000000000000000000000900463ffffffff16806306fdde0314610093578063095ea7b31461012357806318160ddd1461018857806323b872dd146101b357806370a082311461023857806395d89b411461028f578063a9059cbb1461031f578063dd62ed3e14610384575b600080fd5b34801561009f57600080fd5b506100a86103fb565b6040518080602001828103825283818151815260200191508051906020019080838360005b838110156100e85780820151818401526020810190506100cd565b50505050905090810190601f1680156101155780820380516001836020036101000a031916815260200191505b509250505060405180910390f35b34801561012f57600080fd5b5061016e600480360381019080803573ffffffffffffffffffffffffffffffffffffffff16906020019092919080359060200190929190505050610499565b604051808215151515815260200191505060405180910390f35b34801561019457600080fd5b5061019d61058b565b6040518082815260200191505060405180910390f35b3480156101bf57600080fd5b5061021e600480360381019080803573ffffffffffffffffffffffffffffffffffffffff169060200190929190803573ffffffffffffffffffffffffffffffffffffffff16906020019092919080359060200190929190505050610591565b604051808215151515815260200191505060405180910390f35b34801561024457600080fd5b50610279600480360381019080803573ffffffffffffffffffffffffffffffffffffffff169060200190929190505050610800565b6040518082815260200191505060405180910390f35b34801561029b57600080fd5b506102a4610818565b6040518080602001828103825283818151815260200191508051906020019080838360005b838110156102e45780820151818401526020810190506102c9565b50505050905090810190601f1680156103115780820380516001836020036101000a031916815260200191505b509250505060405180910390f35b34801561032b57600080fd5b5061036a600480360381019080803573ffffffffffffffffffffffffffffffffffffffff169060200190929190803590602001909291905050506108b6565b604051808215151515815260200191505060405180910390f35b34801561039057600080fd5b506103e5600480360381019080803573ffffffffffffffffffffffffffffffffffffffff169060200190929190803573ffffffffffffffffffffffffffffffffffffffff169060200190929190505050610a0f565b6040518082815260200191505060405180910390f35b60008054600181600116156101000203166002900480601f0160208091040260200160405190810160405280929190818152602001828054600181600116156101000203166002900480156104915780601f1061046657610100808354040283529160200191610491565b820191906000526020600020905b81548152906001019060200180831161047457829003601f168201915b505050505081565b600081600460003373ffffffffffffffffffffffffffffffffffffffff1673ffffffffffffffffffffffffffffffffffffffff16815260200190815260200160002060008573ffffffffffffffffffffffffffffffffffffffff1673ffffffffffffffffffffffffffffffffffffffff168152602001908152602001600020819055508273ffffffffffffffffffffffffffffffffffffffff163373ffffffffffffffffffffffffffffffffffffffff167f8c5be1e5ebec7d5bd14f71427d1e84f3dd0314c0f7b2291e5b200ac8c7c3b925846040518082815260200191505060405180910390a36001905092915050565b60025481565b6000600360008573ffffffffffffffffffffffffffffffffffffffff1673ffffffffffffffffffffffffffffffffffffffff1681526020019081526020016000205482111515156105e157600080fd5b600460008573ffffffffffffffffffffffffffffffffffffffff1673ffffffffffffffffffffffffffffffffffffffff16815260200190815260200160002060003373ffffffffffffffffffffffffffffffffffffffff1673ffffffffffffffffffffffffffffffffffffffff16815260200190815260200160002054821115151561066c57600080fd5b81600360008673ffffffffffffffffffffffffffffffffffffffff1673ffffffffffffffffffffffffffffffffffffffff1681526020019081526020016000206000828254039250508190555081600360008573ffffffffffffffffffffffffffffffffffffffff1673ffffffffffffffffffffffffffffffffffffffff1681526020019081526020016000206000828254019250508190555081600460008673ffffffffffffffffffffffffffffffffffffffff1673ffffffffffffffffffffffffffffffffffffffff16815260200190815260200160002060003373ffffffffffffffffffffffffffffffffffffffff1673ffffffffffffffffffffffffffffffffffffffff168152602001908152602001600020600082825403925050819055508273ffffffffffffffffffffffffffffffffffffffff168473ffffffffffffffffffffffffffffffffffffffff167fddf252ad1be2c89b69c2b068fc378daa952ba7f163c4a11628f55a4df523b3ef846040518082815260200191505060405180910390a3600190509392505050565b60036020528060005260406000206000915090505481565b60018054600181600116156101000203166002900480601f0160208091040260200160405190810160405280929190818152602001828054600181600116156101000203166002900480156108ae5780601f10610883576101008083540402835291602001916108ae565b820191906000526020600020905b81548152906001019060200180831161089157829003601f168201915b505050505081565b600081600360003373ffffffffffffffffffffffffffffffffffffffff1673ffffffffffffffffffffffffffffffffffffffff168152602001908152602001600020541015151561090657600080fd5b81600360003373ffffffffffffffffffffffffffffffffffffffff1673ffffffffffffffffffffffffffffffffffffffff1681526020019081526020016000206000828254039250508190555081600360008573ffffffffffffffffffffffffffffffffffffffff1673ffffffffffffffffffffffffffffffffffffffff168152602001908152602001600020600082825401925050819055508273ffffffffffffffffffffffffffffffffffffffff163373ffffffffffffffffffffffffffffffffffffffff167fddf252ad1be2c89b69c2b068fc378daa952ba7f163c4a11628f55a4df523b3ef846040518082815260200191505060405180910390a36001905092915050565b60046020528160005260406000206020528060005260406000206000915091505054815600a165627a7a723058201a55954df8b378d62ec9a6acf128ad1683ded3a62aad00d15539ad2fb8ac2ffc0029",
  "source": "pragma solidity ^0.4.23;\n\ncontract SachToken {\n\n  //add a name\n  string public name = \"SachToken\";\n  //add a symbol\n  string public symbol = \"XCH\";\n\n  //N.B: solidity gives us a free getter function to retun the total supply.\n  uint256 public totalSupply;\n\n  //transfer event\n  event Transfer(\n    address indexed _from,\n    address indexed _to,\n    uint256 _value\n  );\n  //approve event\n  event Approval(\n    address indexed _owner,\n    address indexed _spender,\n    uint256 _value\n  );\n  //transfer\n\n  //balanceof : returns the amount of tokens for each address supplied. Keeps track of tokens and their owners.\n  mapping (address => uint256) public balanceOf;\n\n  //allowance : returns the mapping for each of the addresses that a particular owner has approved. For each of these approved addresses, the amount approved. Keeps track of the amount of tokens approved and to whom.\n  mapping (address => mapping (address => uint256))public allowance;\n\n  //constructor\n  constructor (uint256 _initialSupply) public {\n    totalSupply = _initialSupply;\n    //allocate the inital supply to admin account\n    balanceOf[msg.sender] = _initialSupply;\n  }\n\n\n  //Transfer\n  function transfer(address _to, uint256 _value) public returns(bool success) {\n    //Exception if account doesnt have enough\n    require(balanceOf[msg.sender] >= _value);\n    //Transfer balance\n    balanceOf[msg.sender] -= _value;\n    balanceOf[_to]+= _value;\n    //Transfer Event\n    emit Transfer(msg.sender, _to, _value);\n    //Return an Boolean\n    return true;\n  }\n\n  //approve a transfer  //balanceof : return the amount of tokens for each address supplied. Keeps track of tokens and their owners.\n  function approve(address _spender, uint256 _value) public returns (bool success) {\n    //allowance\n    allowance[msg.sender][_spender] = _value;\n    //Approve Event\n    emit Approval(msg.sender, _spender, _value);\n    //returnthe mapping for each of the addresses that a particular owner has approved. For each of these approved addresses, the amount approved. Keeps track of the amount of tokens approved and to whom. a boolean\n    return true;\n  }\n  //transfer from\n  function transferFrom(address _from, address _to, uint256 _value) public returns (bool success) {\n    //require from account has enough tokens\n    require(_value <= balanceOf[_from]);\n    //require the allowance is big enough : cant transfer tokens more than the allowance\n    require(_value <= allowance[_from][msg.sender]);\n    //change the balance\n    balanceOf[_from] -= _value;\n    balanceOf[_to] += _value;\n    //update the allowance\n    allowance[_from][msg.sender] -= _value;\n    //Transfer Event\n    emit Transfer(_from, _to, _value);\n    //return boolean\n    return true;\n  }\n\n}\n",
  "sourcePath": "/home/sach/Desktop/tokensale/contracts/SachToken.sol",
  "compiler": {
    "name": "solc",
    "version": "0.4.24+commit.e67f0147.Emscripten.clang"
  },
  "schemaVersion": "2.0.1",
  "updatedAt": "2018-11-13T10:38:22.005Z"
}